{
  "_format": "hh-sol-artifact-1",
  "contractName": "NFTixBooth",
  "sourceName": "contracts/NFTixBooth.sol",
  "abi": [
    {
      "inputs": [],
      "stateMutability": "nonpayable",
      "type": "constructor"
    },
    {
      "anonymous": false,
      "inputs": [
        {
          "indexed": true,
          "internalType": "address",
          "name": "owner",
          "type": "address"
        },
        {
          "indexed": true,
          "internalType": "address",
          "name": "approved",
          "type": "address"
        },
        {
          "indexed": true,
          "internalType": "uint256",
          "name": "tokenId",
          "type": "uint256"
        }
      ],
      "name": "Approval",
      "type": "event"
    },
    {
      "anonymous": false,
      "inputs": [
        {
          "indexed": true,
          "internalType": "address",
          "name": "owner",
          "type": "address"
        },
        {
          "indexed": true,
          "internalType": "address",
          "name": "operator",
          "type": "address"
        },
        {
          "indexed": false,
          "internalType": "bool",
          "name": "approved",
          "type": "bool"
        }
      ],
      "name": "ApprovalForAll",
      "type": "event"
    },
    {
      "anonymous": false,
      "inputs": [
        {
          "indexed": true,
          "internalType": "address",
          "name": "previousOwner",
          "type": "address"
        },
        {
          "indexed": true,
          "internalType": "address",
          "name": "newOwner",
          "type": "address"
        }
      ],
      "name": "OwnershipTransferred",
      "type": "event"
    },
    {
      "anonymous": false,
      "inputs": [
        {
          "indexed": true,
          "internalType": "address",
          "name": "from",
          "type": "address"
        },
        {
          "indexed": true,
          "internalType": "address",
          "name": "to",
          "type": "address"
        },
        {
          "indexed": true,
          "internalType": "uint256",
          "name": "tokenId",
          "type": "uint256"
        }
      ],
      "name": "Transfer",
      "type": "event"
    },
    {
      "inputs": [
        {
          "internalType": "address",
          "name": "to",
          "type": "address"
        },
        {
          "internalType": "uint256",
          "name": "tokenId",
          "type": "uint256"
        }
      ],
      "name": "approve",
      "outputs": [],
      "stateMutability": "nonpayable",
      "type": "function"
    },
    {
      "inputs": [],
      "name": "availableTickets",
      "outputs": [
        {
          "internalType": "uint256",
          "name": "",
          "type": "uint256"
        }
      ],
      "stateMutability": "view",
      "type": "function"
    },
    {
      "inputs": [
        {
          "internalType": "address",
          "name": "owner",
          "type": "address"
        }
      ],
      "name": "balanceOf",
      "outputs": [
        {
          "internalType": "uint256",
          "name": "",
          "type": "uint256"
        }
      ],
      "stateMutability": "view",
      "type": "function"
    },
    {
      "inputs": [
        {
          "internalType": "address",
          "name": "addy",
          "type": "address"
        }
      ],
      "name": "checkIn",
      "outputs": [],
      "stateMutability": "nonpayable",
      "type": "function"
    },
    {
      "inputs": [
        {
          "internalType": "address",
          "name": "",
          "type": "address"
        }
      ],
      "name": "checkIns",
      "outputs": [
        {
          "internalType": "bool",
          "name": "",
          "type": "bool"
        }
      ],
      "stateMutability": "view",
      "type": "function"
    },
    {
      "inputs": [],
      "name": "closeSale",
      "outputs": [],
      "stateMutability": "nonpayable",
      "type": "function"
    },
    {
      "inputs": [
        {
          "internalType": "address",
          "name": "addy",
          "type": "address"
        }
      ],
      "name": "confirmOwnership",
      "outputs": [
        {
          "internalType": "bool",
          "name": "",
          "type": "bool"
        }
      ],
      "stateMutability": "view",
      "type": "function"
    },
    {
      "inputs": [
        {
          "internalType": "uint256",
          "name": "tokenId",
          "type": "uint256"
        }
      ],
      "name": "getApproved",
      "outputs": [
        {
          "internalType": "address",
          "name": "",
          "type": "address"
        }
      ],
      "stateMutability": "view",
      "type": "function"
    },
    {
      "inputs": [
        {
          "internalType": "address",
          "name": "",
          "type": "address"
        },
        {
          "internalType": "uint256",
          "name": "",
          "type": "uint256"
        }
      ],
      "name": "holderTokenIDs",
      "outputs": [
        {
          "internalType": "uint256",
          "name": "",
          "type": "uint256"
        }
      ],
      "stateMutability": "view",
      "type": "function"
    },
    {
      "inputs": [
        {
          "internalType": "address",
          "name": "owner",
          "type": "address"
        },
        {
          "internalType": "address",
          "name": "operator",
          "type": "address"
        }
      ],
      "name": "isApprovedForAll",
      "outputs": [
        {
          "internalType": "bool",
          "name": "",
          "type": "bool"
        }
      ],
      "stateMutability": "view",
      "type": "function"
    },
    {
      "inputs": [],
      "name": "mint",
      "outputs": [],
      "stateMutability": "payable",
      "type": "function"
    },
    {
      "inputs": [],
      "name": "mintPrice",
      "outputs": [
        {
          "internalType": "uint256",
          "name": "",
          "type": "uint256"
        }
      ],
      "stateMutability": "view",
      "type": "function"
    },
    {
      "inputs": [],
      "name": "name",
      "outputs": [
        {
          "internalType": "string",
          "name": "",
          "type": "string"
        }
      ],
      "stateMutability": "view",
      "type": "function"
    },
    {
      "inputs": [],
      "name": "openSale",
      "outputs": [],
      "stateMutability": "nonpayable",
      "type": "function"
    },
    {
      "inputs": [],
      "name": "owner",
      "outputs": [
        {
          "internalType": "address",
          "name": "",
          "type": "address"
        }
      ],
      "stateMutability": "view",
      "type": "function"
    },
    {
      "inputs": [
        {
          "internalType": "uint256",
          "name": "tokenId",
          "type": "uint256"
        }
      ],
      "name": "ownerOf",
      "outputs": [
        {
          "internalType": "address",
          "name": "",
          "type": "address"
        }
      ],
      "stateMutability": "view",
      "type": "function"
    },
    {
      "inputs": [],
      "name": "renounceOwnership",
      "outputs": [],
      "stateMutability": "nonpayable",
      "type": "function"
    },
    {
      "inputs": [
        {
          "internalType": "address",
          "name": "from",
          "type": "address"
        },
        {
          "internalType": "address",
          "name": "to",
          "type": "address"
        },
        {
          "internalType": "uint256",
          "name": "tokenId",
          "type": "uint256"
        }
      ],
      "name": "safeTransferFrom",
      "outputs": [],
      "stateMutability": "nonpayable",
      "type": "function"
    },
    {
      "inputs": [
        {
          "internalType": "address",
          "name": "from",
          "type": "address"
        },
        {
          "internalType": "address",
          "name": "to",
          "type": "address"
        },
        {
          "internalType": "uint256",
          "name": "tokenId",
          "type": "uint256"
        },
        {
          "internalType": "bytes",
          "name": "_data",
          "type": "bytes"
        }
      ],
      "name": "safeTransferFrom",
      "outputs": [],
      "stateMutability": "nonpayable",
      "type": "function"
    },
    {
      "inputs": [],
      "name": "saleIsActive",
      "outputs": [
        {
          "internalType": "bool",
          "name": "",
          "type": "bool"
        }
      ],
      "stateMutability": "view",
      "type": "function"
    },
    {
      "inputs": [
        {
          "internalType": "address",
          "name": "operator",
          "type": "address"
        },
        {
          "internalType": "bool",
          "name": "approved",
          "type": "bool"
        }
      ],
      "name": "setApprovalForAll",
      "outputs": [],
      "stateMutability": "nonpayable",
      "type": "function"
    },
    {
      "inputs": [
        {
          "internalType": "bytes4",
          "name": "interfaceId",
          "type": "bytes4"
        }
      ],
      "name": "supportsInterface",
      "outputs": [
        {
          "internalType": "bool",
          "name": "",
          "type": "bool"
        }
      ],
      "stateMutability": "view",
      "type": "function"
    },
    {
      "inputs": [],
      "name": "symbol",
      "outputs": [
        {
          "internalType": "string",
          "name": "",
          "type": "string"
        }
      ],
      "stateMutability": "view",
      "type": "function"
    },
    {
      "inputs": [
        {
          "internalType": "uint256",
          "name": "tokenId",
          "type": "uint256"
        }
      ],
      "name": "tokenURI",
      "outputs": [
        {
          "internalType": "string",
          "name": "",
          "type": "string"
        }
      ],
      "stateMutability": "view",
      "type": "function"
    },
    {
      "inputs": [],
      "name": "totalTickets",
      "outputs": [
        {
          "internalType": "uint256",
          "name": "",
          "type": "uint256"
        }
      ],
      "stateMutability": "view",
      "type": "function"
    },
    {
      "inputs": [
        {
          "internalType": "address",
          "name": "from",
          "type": "address"
        },
        {
          "internalType": "address",
          "name": "to",
          "type": "address"
        },
        {
          "internalType": "uint256",
          "name": "tokenId",
          "type": "uint256"
        }
      ],
      "name": "transferFrom",
      "outputs": [],
      "stateMutability": "nonpayable",
      "type": "function"
    },
    {
      "inputs": [
        {
          "internalType": "address",
          "name": "newOwner",
          "type": "address"
        }
      ],
      "name": "transferOwnership",
      "outputs": [],
      "stateMutability": "nonpayable",
      "type": "function"
    }
  ],
  "bytecode": "0x60806040526009805460ff19169055600a808055600b5566038d7ea4c68000600c553480156200002e57600080fd5b50604080518082018252600581526409c8ca8d2f60db1b60208083019182528351808501909452600484526309c8ca8b60e31b9084015281519192916200007891600091620001c7565b5080516200008e906001906020840190620001c7565b505050620000ab620000a5620000f460201b60201c565b620000f8565b620000c260086200014a60201b62000e881760201c565b620000ee620000dd60086200015360201b62000e911760201c565b6200015760201b62000e951760201c565b620002aa565b3390565b600780546001600160a01b038381166001600160a01b0319831681179093556040519116919082907f8be0079c531659141344cd1fd0a4f28419497f9722a3daafe3b4186f6b6457e090600090a35050565b80546001019055565b5490565b620001a3816040516024016200016f91815260200190565b60408051601f198184030181529190526020810180516001600160e01b0390811663f5b1bba960e01b17909152620001a616565b50565b80516a636f6e736f6c652e6c6f67602083016000808483855afa5050505050565b828054620001d5906200026d565b90600052602060002090601f016020900481019282620001f9576000855562000244565b82601f106200021457805160ff191683800117855562000244565b8280016001018555821562000244579182015b828111156200024457825182559160200191906001019062000227565b506200025292915062000256565b5090565b5b8082111562000252576000815560010162000257565b600181811c908216806200028257607f821691505b60208210811415620002a457634e487b7160e01b600052602260045260246000fd5b50919050565b6122d780620002ba6000396000f3fe60806040526004361061019c5760003560e01c8063715018a6116100ec578063c87b56dd1161008a578063e985e9c511610064578063e985e9c51461048f578063eb8d2444146104d8578063ee55efee146104f2578063f2fde38b1461050757600080fd5b8063c87b56dd14610439578063d9a59e3314610459578063dd11247e1461047957600080fd5b80638da5cb5b116100c65780638da5cb5b146103c657806395d89b41146103e4578063a22cb465146103f9578063b88d4fde1461041957600080fd5b8063715018a61461035957806380f2abe31461036e57806382ac0bb8146103a657600080fd5b80631acc9b621161015957806342842e0e1161013357806342842e0e146102e35780636352211e146103035780636817c76c1461032357806370a082311461033957600080fd5b80631acc9b621461026f57806323b872dd1461029f5780633cfa7e01146102bf57600080fd5b806301ffc9a7146101a157806306fdde03146101d6578063081812fc146101f8578063095ea7b3146102305780631249c58b14610252578063167ff46f1461025a575b600080fd5b3480156101ad57600080fd5b506101c16101bc366004611c52565b610527565b60405190151581526020015b60405180910390f35b3480156101e257600080fd5b506101eb610579565b6040516101cd9190612026565b34801561020457600080fd5b50610218610213366004611c8a565b61060b565b6040516001600160a01b0390911681526020016101cd565b34801561023c57600080fd5b5061025061024b366004611c29565b610698565b005b6102506107ae565b34801561026657600080fd5b5061025061095a565b34801561027b57600080fd5b506101c161028a366004611a93565b600e6020526000908152604090205460ff1681565b3480156102ab57600080fd5b506102506102ba366004611adf565b610993565b3480156102cb57600080fd5b506102d5600b5481565b6040519081526020016101cd565b3480156102ef57600080fd5b506102506102fe366004611adf565b6109c4565b34801561030f57600080fd5b5061021861031e366004611c8a565b6109df565b34801561032f57600080fd5b506102d5600c5481565b34801561034557600080fd5b506102d5610354366004611a93565b610a56565b34801561036557600080fd5b50610250610add565b34801561037a57600080fd5b506101c1610389366004611a93565b6001600160a01b03166000908152600d6020526040902054151590565b3480156103b257600080fd5b506102d56103c1366004611c29565b610b13565b3480156103d257600080fd5b506007546001600160a01b0316610218565b3480156103f057600080fd5b506101eb610b44565b34801561040557600080fd5b50610250610414366004611bef565b610b53565b34801561042557600080fd5b50610250610434366004611b1a565b610b62565b34801561044557600080fd5b506101eb610454366004611c8a565b610b9a565b34801561046557600080fd5b50610250610474366004611a93565b610d11565b34801561048557600080fd5b506102d5600a5481565b34801561049b57600080fd5b506101c16104aa366004611aad565b6001600160a01b03918216600090815260056020908152604080832093909416825291909152205460ff1690565b3480156104e457600080fd5b506009546101c19060ff1681565b3480156104fe57600080fd5b50610250610db7565b34801561051357600080fd5b50610250610522366004611a93565b610ded565b60006001600160e01b031982166380ac58cd60e01b148061055857506001600160e01b03198216635b5e139f60e01b145b8061057357506301ffc9a760e01b6001600160e01b03198316145b92915050565b6060600080546105889061219f565b80601f01602080910402602001604051908101604052809291908181526020018280546105b49061219f565b80156106015780601f106105d657610100808354040283529160200191610601565b820191906000526020600020905b8154815290600101906020018083116105e457829003601f168201915b5050505050905090565b600061061682610eda565b61067c5760405162461bcd60e51b815260206004820152602c60248201527f4552433732313a20617070726f76656420717565727920666f72206e6f6e657860448201526b34b9ba32b73a103a37b5b2b760a11b60648201526084015b60405180910390fd5b506000908152600460205260409020546001600160a01b031690565b60006106a3826109df565b9050806001600160a01b0316836001600160a01b031614156107115760405162461bcd60e51b815260206004820152602160248201527f4552433732313a20617070726f76616c20746f2063757272656e74206f776e656044820152603960f91b6064820152608401610673565b336001600160a01b038216148061072d575061072d81336104aa565b61079f5760405162461bcd60e51b815260206004820152603860248201527f4552433732313a20617070726f76652063616c6c6572206973206e6f74206f7760448201527f6e6572206e6f7220617070726f76656420666f7220616c6c00000000000000006064820152608401610673565b6107a98383610ef7565b505050565b6000600b54116107f55760405162461bcd60e51b81526020600482015260126024820152714e6f7420656e6f756768207469636b65747360701b6044820152606401610673565b600c543410156108385760405162461bcd60e51b815260206004820152600e60248201526d09cdee840cadcdeeaced040cae8d60931b6044820152606401610673565b60095460ff1661088a5760405162461bcd60e51b815260206004820152601760248201527f5469636b65747320617265206e6f74206f6e2073616c650000000000000000006044820152606401610673565b60006108c46108a061089b60085490565b610f65565b6040516020016108b09190611eb8565b60405160208183030381529060405261107f565b90506000816040516020016108d99190611d43565b60405160208183030381529060405290506108fc336108f760085490565b6111f3565b61090e61090860085490565b8261120d565b336000908152600d6020526040902060085481546001810183556000928352602090922090910155610944600880546001019055565b6001600b54610953919061215c565b600b555050565b6007546001600160a01b031633146109845760405162461bcd60e51b81526004016106739061208b565b6009805460ff19166001179055565b61099d3382611298565b6109b95760405162461bcd60e51b8152600401610673906120c0565b6107a983838361137e565b6107a983838360405180602001604052806000815250610b62565b6000818152600260205260408120546001600160a01b0316806105735760405162461bcd60e51b815260206004820152602960248201527f4552433732313a206f776e657220717565727920666f72206e6f6e657869737460448201526832b73a103a37b5b2b760b91b6064820152608401610673565b60006001600160a01b038216610ac15760405162461bcd60e51b815260206004820152602a60248201527f4552433732313a2062616c616e636520717565727920666f7220746865207a65604482015269726f206164647265737360b01b6064820152608401610673565b506001600160a01b031660009081526003602052604090205490565b6007546001600160a01b03163314610b075760405162461bcd60e51b81526004016106739061208b565b610b11600061151e565b565b600d6020528160005260406000208181548110610b2f57600080fd5b90600052602060002001600091509150505481565b6060600180546105889061219f565b610b5e338383611570565b5050565b610b6c3383611298565b610b885760405162461bcd60e51b8152600401610673906120c0565b610b948484848461163f565b50505050565b6060610ba582610eda565b610c0b5760405162461bcd60e51b815260206004820152603160248201527f45524337323155524953746f726167653a2055524920717565727920666f72206044820152703737b732bc34b9ba32b73a103a37b5b2b760791b6064820152608401610673565b60008281526006602052604081208054610c249061219f565b80601f0160208091040260200160405190810160405280929190818152602001828054610c509061219f565b8015610c9d5780601f10610c7257610100808354040283529160200191610c9d565b820191906000526020600020905b815481529060010190602001808311610c8057829003601f168201915b505050505090506000610cbb60408051602081019091526000815290565b9050805160001415610cce575092915050565b815115610d00578082604051602001610ce8929190611d14565b60405160208183030381529060405292505050919050565b610d0984611672565b949350505050565b6001600160a01b0381166000908152600e60209081526040808320805460ff19166001179055600d909152812080548290610d5c57634e487b7160e01b600052603260045260246000fd5b906000526020600020015490506000610d87610d7783610f65565b6040516020016108b09190611d88565b9050600081604051602001610d9c9190611d43565b6040516020818303038152906040529050610b94838261120d565b6007546001600160a01b03163314610de15760405162461bcd60e51b81526004016106739061208b565b6009805460ff19169055565b6007546001600160a01b03163314610e175760405162461bcd60e51b81526004016106739061208b565b6001600160a01b038116610e7c5760405162461bcd60e51b815260206004820152602660248201527f4f776e61626c653a206e6577206f776e657220697320746865207a65726f206160448201526564647265737360d01b6064820152608401610673565b610e858161151e565b50565b80546001019055565b5490565b610e8581604051602401610eab91815260200190565b60408051601f198184030181529190526020810180516001600160e01b031663f5b1bba960e01b17905261174a565b6000908152600260205260409020546001600160a01b0316151590565b600081815260046020526040902080546001600160a01b0319166001600160a01b0384169081179091558190610f2c826109df565b6001600160a01b03167f8c5be1e5ebec7d5bd14f71427d1e84f3dd0314c0f7b2291e5b200ac8c7c3b92560405160405180910390a45050565b606081610f895750506040805180820190915260018152600360fc1b602082015290565b8160005b8115610fb35780610f9d816121da565b9150610fac9050600a83612129565b9150610f8d565b60008167ffffffffffffffff811115610fdc57634e487b7160e01b600052604160045260246000fd5b6040519080825280601f01601f191660200182016040528015611006576020820181803683370190505b5090505b8415610d095761101b60018361215c565b9150611028600a866121f5565b611033906030612111565b60f81b81838151811061105657634e487b7160e01b600052603260045260246000fd5b60200101906001600160f81b031916908160001a905350611078600a86612129565b945061100a565b80516060908061109f575050604080516020810190915260008152919050565b600060036110ae836002612111565b6110b89190612129565b6110c390600461213d565b905060006110d2826020612111565b67ffffffffffffffff8111156110f857634e487b7160e01b600052604160045260246000fd5b6040519080825280601f01601f191660200182016040528015611122576020820181803683370190505b5090506000604051806060016040528060408152602001612262604091399050600181016020830160005b868110156111ae576003818a01810151603f601282901c8116860151600c83901c8216870151600684901c831688015192909316870151600891821b60ff94851601821b92841692909201901b91160160e01b83526004909201910161114d565b5060038606600181146111c857600281146111d9576111e5565b613d3d60f01b6001198301526111e5565b603d60f81b6000198301525b505050918152949350505050565b610b5e82826040518060200160405280600081525061176b565b61121682610eda565b6112795760405162461bcd60e51b815260206004820152602e60248201527f45524337323155524953746f726167653a2055524920736574206f66206e6f6e60448201526d32bc34b9ba32b73a103a37b5b2b760911b6064820152608401610673565b600082815260066020908152604090912082516107a9928401906119de565b60006112a382610eda565b6113045760405162461bcd60e51b815260206004820152602c60248201527f4552433732313a206f70657261746f7220717565727920666f72206e6f6e657860448201526b34b9ba32b73a103a37b5b2b760a11b6064820152608401610673565b600061130f836109df565b9050806001600160a01b0316846001600160a01b0316148061134a5750836001600160a01b031661133f8461060b565b6001600160a01b0316145b80610d0957506001600160a01b0380821660009081526005602090815260408083209388168352929052205460ff16610d09565b826001600160a01b0316611391826109df565b6001600160a01b0316146113f95760405162461bcd60e51b815260206004820152602960248201527f4552433732313a207472616e73666572206f6620746f6b656e2074686174206960448201526839903737ba1037bbb760b91b6064820152608401610673565b6001600160a01b03821661145b5760405162461bcd60e51b8152602060048201526024808201527f4552433732313a207472616e7366657220746f20746865207a65726f206164646044820152637265737360e01b6064820152608401610673565b611466600082610ef7565b6001600160a01b038316600090815260036020526040812080546001929061148f90849061215c565b90915550506001600160a01b03821660009081526003602052604081208054600192906114bd908490612111565b909155505060008181526002602052604080822080546001600160a01b0319166001600160a01b0386811691821790925591518493918716917fddf252ad1be2c89b69c2b068fc378daa952ba7f163c4a11628f55a4df523b3ef91a4505050565b600780546001600160a01b038381166001600160a01b0319831681179093556040519116919082907f8be0079c531659141344cd1fd0a4f28419497f9722a3daafe3b4186f6b6457e090600090a35050565b816001600160a01b0316836001600160a01b031614156115d25760405162461bcd60e51b815260206004820152601960248201527f4552433732313a20617070726f766520746f2063616c6c6572000000000000006044820152606401610673565b6001600160a01b03838116600081815260056020908152604080832094871680845294825291829020805460ff191686151590811790915591519182527f17307eab39ab6107e8899845ad3d59bd9653f200f220920489ca2b5937696c31910160405180910390a3505050565b61164a84848461137e565b6116568484848461179e565b610b945760405162461bcd60e51b815260040161067390612039565b606061167d82610eda565b6116e15760405162461bcd60e51b815260206004820152602f60248201527f4552433732314d657461646174613a2055524920717565727920666f72206e6f60448201526e3732bc34b9ba32b73a103a37b5b2b760891b6064820152608401610673565b60006116f860408051602081019091526000815290565b905060008151116117185760405180602001604052806000815250611743565b8061172284610f65565b604051602001611733929190611d14565b6040516020818303038152906040525b9392505050565b80516a636f6e736f6c652e6c6f67602083016000808483855afa5050505050565b61177583836118ab565b611782600084848461179e565b6107a95760405162461bcd60e51b815260040161067390612039565b60006001600160a01b0384163b156118a057604051630a85bd0160e11b81526001600160a01b0385169063150b7a02906117e2903390899088908890600401611fe9565b602060405180830381600087803b1580156117fc57600080fd5b505af192505050801561182c575060408051601f3d908101601f1916820190925261182991810190611c6e565b60015b611886573d80801561185a576040519150601f19603f3d011682016040523d82523d6000602084013e61185f565b606091505b50805161187e5760405162461bcd60e51b815260040161067390612039565b805181602001fd5b6001600160e01b031916630a85bd0160e11b149050610d09565b506001949350505050565b6001600160a01b0382166119015760405162461bcd60e51b815260206004820181905260248201527f4552433732313a206d696e7420746f20746865207a65726f20616464726573736044820152606401610673565b61190a81610eda565b156119575760405162461bcd60e51b815260206004820152601c60248201527f4552433732313a20746f6b656e20616c7265616479206d696e746564000000006044820152606401610673565b6001600160a01b0382166000908152600360205260408120805460019290611980908490612111565b909155505060008181526002602052604080822080546001600160a01b0319166001600160a01b03861690811790915590518392907fddf252ad1be2c89b69c2b068fc378daa952ba7f163c4a11628f55a4df523b3ef908290a45050565b8280546119ea9061219f565b90600052602060002090601f016020900481019282611a0c5760008555611a52565b82601f10611a2557805160ff1916838001178555611a52565b82800160010185558215611a52579182015b82811115611a52578251825591602001919060010190611a37565b50611a5e929150611a62565b5090565b5b80821115611a5e5760008155600101611a63565b80356001600160a01b0381168114611a8e57600080fd5b919050565b600060208284031215611aa4578081fd5b61174382611a77565b60008060408385031215611abf578081fd5b611ac883611a77565b9150611ad660208401611a77565b90509250929050565b600080600060608486031215611af3578081fd5b611afc84611a77565b9250611b0a60208501611a77565b9150604084013590509250925092565b60008060008060808587031215611b2f578081fd5b611b3885611a77565b9350611b4660208601611a77565b925060408501359150606085013567ffffffffffffffff80821115611b69578283fd5b818701915087601f830112611b7c578283fd5b813581811115611b8e57611b8e612235565b604051601f8201601f19908116603f01168101908382118183101715611bb657611bb6612235565b816040528281528a6020848701011115611bce578586fd5b82602086016020830137918201602001949094529598949750929550505050565b60008060408385031215611c01578182fd5b611c0a83611a77565b915060208301358015158114611c1e578182fd5b809150509250929050565b60008060408385031215611c3b578182fd5b611c4483611a77565b946020939093013593505050565b600060208284031215611c63578081fd5b81356117438161224b565b600060208284031215611c7f578081fd5b81516117438161224b565b600060208284031215611c9b578081fd5b5035919050565b60008151808452611cba816020860160208601612173565b601f01601f19169290920160200192915050565b7f222c20226465736372697074696f6e223a202241204e46542d706f77657265648152730103a34b1b5b2ba34b7339039bcb9ba32b69116160651b602082015260340190565b60008351611d26818460208801612173565b835190830190611d3a818360208801612173565b01949350505050565b7f646174613a6170706c69636174696f6e2f6a736f6e3b6261736536342c000000815260008251611d7b81601d850160208701612173565b91909101601d0192915050565b717b20226e616d65223a20224e46546978202360701b81528151600090611db6816012850160208701612173565b611dc4601282850101611cce565b7f22747261697473223a205b7b202274726169745f74797065223a20224368656381527f6b656420496e222c202276616c7565223a20227472756522207d2c207b20227460208201527f726169745f74797065223a2022507572636861736564222c202276616c75652260408201526c01d10113a393ab291103eae961609d1b60608201527f22696d616765223a2022697066733a2f2f6261666b7265696165776c6b347762606d8201527f646a7234756964763670667075366e7a6d6b33346a746d6b7267687a66723579608d8201526e6361766b326777637332376522207d60881b60ad82015260bc01949350505050565b717b20226e616d65223a20224e46546978202360701b81528151600090611ee6816012850160208701612173565b611ef4601282850101611cce565b7f22747261697473223a205b7b202274726169745f74797065223a20224368656381527f6b656420496e222c202276616c7565223a202266616c736522207d2c207b202260208201527f74726169745f74797065223a2022507572636861736564222c202276616c756560408201526d0111d10113a393ab291103eae96160951b60608201527f22696d616765223a2022697066733a2f2f626166796265696862327a6b366d72606e8201527f6668326136737967683633796d69757732783437727a7072337a6b3279323562608e8201526e6e6e637a6d6135657165653422207d60881b60ae82015260bd01949350505050565b6001600160a01b038581168252841660208201526040810183905260806060820181905260009061201c90830184611ca2565b9695505050505050565b6020815260006117436020830184611ca2565b60208082526032908201527f4552433732313a207472616e7366657220746f206e6f6e20455243373231526560408201527131b2b4bb32b91034b6b83632b6b2b73a32b960711b606082015260800190565b6020808252818101527f4f776e61626c653a2063616c6c6572206973206e6f7420746865206f776e6572604082015260600190565b60208082526031908201527f4552433732313a207472616e736665722063616c6c6572206973206e6f74206f6040820152701ddb995c881b9bdc88185c1c1c9bdd9959607a1b606082015260800190565b6000821982111561212457612124612209565b500190565b6000826121385761213861221f565b500490565b600081600019048311821515161561215757612157612209565b500290565b60008282101561216e5761216e612209565b500390565b60005b8381101561218e578181015183820152602001612176565b83811115610b945750506000910152565b600181811c908216806121b357607f821691505b602082108114156121d457634e487b7160e01b600052602260045260246000fd5b50919050565b60006000198214156121ee576121ee612209565b5060010190565b6000826122045761220461221f565b500690565b634e487b7160e01b600052601160045260246000fd5b634e487b7160e01b600052601260045260246000fd5b634e487b7160e01b600052604160045260246000fd5b6001600160e01b031981168114610e8557600080fdfe4142434445464748494a4b4c4d4e4f505152535455565758595a6162636465666768696a6b6c6d6e6f707172737475767778797a303132333435363738392b2fa264697066735822122088700cb4ba2e0029f430bcada186f7b8620f996c30cea6288338318bf4140b3564736f6c63430008040033",
  "linkReferences": {},
  "deployedLinkReferences": {}
}